:020000040800F2
:10000000000002204D1200087D0B00087F0B000845
:10001000810B0008830B0008850B0008000000001E
:10002000000000000000000000000000870B000836
:10003000890B0008000000008B0B00088D0B0008E6
:100040009D1200089D1200089D1200089D120008D4
:100050009D1200089D1200089D1200089D120008C4
:100060009D1200089D1200089D1200089D120008B4
:10007000950B00089D120008A50B00089D120008B2
:100080009D1200089D1200089D120008B50B000883
:10009000C50B0008D50B0008E50B00089D120008F1
:1000A0009D1200089D1200089D1200089D12000874
:1000B0009D1200089D1200089D1200089D12000864
:1000C0009D1200089D1200089D1200089D12000854
:1000D0009D120008F50B0008050C0008150C00081F
:1000E0009D1200089D1200089D1200089D12000834
:1000F0009D1200089D1200089D1200089D12000824
:100100009D1200089D1200089D1200089D12000813
:100110009D1200089D120008250C0008350C0008EF
:100120009D1200089D1200089D1200089D120008F3
:100130009D1200089D1200089D120008450C000841
:10014000550C0008650C0008750C00089D1200088D
:100150009D1200089D1200089D1200089D120008C3
:100160009D1200089D1200089D1200089D120008B3
:100170009D1200089D1200089D120008000000005A
:080180009D1200089D12000809
:1001880010B5054C237833B9044B13B10448AFF3C9
:1001980000800123237010BD3C04002000000000F3
:1001A8001436000808B5034B1BB103490348AFF3E5
:1001B800008008BD0000000040040020143600083C
:1001C80053B94AB9002908BF00281CBF4FF0FF31B6
:1001D8004FF0FF3000F074B9ADF1080C6DE904CEB2
:1001E80000F006F8DDF804E0DDE9022304B070470A
:1001F8002DE9F047089E0D4604468846002B4DD150
:100208008A42944668D9B2FA82F252B101FA02F3EC
:10021800C2F1200120FA01F10CFA02FC41EA0308BC
:1002280094404FEA1C45210CB8FBF5FE1FFA8CF7E9
:1002380005FB1E8341EA03430EFB07F199420BD9E4
:100248001CEB03030EF1FF3080F01E81994240F24F
:100258001B81AEF1020E63445B1AA4B2B3FBF5F046
:1002680005FB103344EA034400FB07F7A7420AD909
:100278001CEB040400F1FF3380F00881A74240F230
:10028800058164440238E41B40EA0E4000211EB197
:10029800D4400023C6E90043BDE8F0878B4208D963
:1002A800002E00F0EE800021C6E900050846BDE8F2
:1002B800F087B3FA83F100294AD1AB4202D38242D4
:1002C80000F2F980841A65EB030301209846002E9A
:1002D800E2D0C6E90048DFE702B9FFDEB2FA82F2EF
:1002E800002A40F09180A1EB0C054FEA1C471FFA49
:1002F8008CFE0121B5FBF7F307FB1350250C45EAEB
:1003080000450EFB03F0A84208D91CEB050503F1D4
:10031800FF3802D2A84200F2CB8043462D1AA4B27D
:10032800B5FBF7F007FB105544EA05440EFB00FE49
:10033800A64508D91CEB040400F1FF3502D2A645F6
:1003480000F2BB802846A4EB0E0440EA03409EE777
:10035800C1F120078B4022FA07FC4CEA030C20FA73
:1003680007F405FA01F31C43FD404FEA1C4900FA63
:1003780001F3B5FBF9F8200C1FFA8CFE09FB1855A0
:1003880040EA054508FB0EF0A84202FA01F20BD933
:100398001CEB050508F1FF3A80F08880A84240F27E
:1003A8008580A8F1020865442D1AA4B2B5FBF9F0BE
:1003B80009FB105544EA054500FB0EFEAE4508D979
:1003C8001CEB050500F1FF346CD2AE456AD9023842
:1003D800654440EA0840A0FB0294A5EB0E05A5423F
:1003E800C846A64656D353D05EB1B3EB080265EBB8
:1003F8000E0505FA07F722FA01F3CD401F43C6E9B7
:1004080000750021BDE8F087C2F1200320FA03F14E
:100418000CFA02FC25FA03F395400D434FEA1C47FA
:100428001FFA8CFEB3FBF7F107FB11302B0C43EAE4
:10043800004301FB0EF0984204FA02F408D91CEBC1
:10044800030301F1FF382FD298422DD902396344B2
:100458001B1AADB2B3FBF7F007FB103345EA0345AF
:1004680000FB0EF3AB4208D91CEB050500F1FF3881
:1004780016D2AB4214D902386544ED1A40EA01415C
:1004880038E73146304607E78646E5E61846FAE695
:100498004B45A9D2B9EB020864EB0C0E0138A3E76F
:1004A8004046EAE7204694E74146D1E7D0467BE755
:1004B800023B654432E7084609E76444023842E7EC
:1004C800704700BF00B585B00023009301930293E5
:1004D80003931748174A02604FF4803242608360E2
:1004E8000361037680F820304FF08052C2624FF0EB
:1004F80000628262C3600122C26180F830304261CA
:1005080000F0B6FF68B90823009301230193022382
:1005180002936946064800F0D7FF28B905B05DF890
:1005280004FB00F03FFAEEE700F03CFAF6E700BF04
:10053800580400200022014000B589B0002303932D
:1005480004930593069307930268134B9A4202D0CB
:1005580009B05DF804FB0021019103F58B335A6C57
:1005680042F480625A645A6C02F480620192019AE1
:1005780002911A6B42F020021A631B6B03F02003EE
:100588000293029B4FF4806303930323049303A90C
:10059800024801F0A1FDDBE70022014000140240FF
:1005A80008B50E480E4B03600323436000238360A5
:1005B800C3604FF4102202614FF4001242610376C7
:1005C800012242768376C3760377437701F048F8B1
:1005D80000B908BD00F0E6F9FBE700BFA40400205D
:1005E8000064004008B50E480E4B036003234360C7
:1005F80000238360C3604FF4102202614FF400129D
:1006080042610376012242768376C3760377437785
:1006180001F026F800B908BD00F0C4F9FBE700BFF7
:10062800CC0400200068004010B58AB00023059370
:1006380006930793089309930368554A934204D095
:10064800544A93424CD00AB010BD534A1368013340
:100658001360012B37D000240194504B1A6B42F0E1
:1006680008021A631B6B03F008030193019B032321
:1006780005930222069208930923099305A948487D
:1006880001F02AFD22462146132001F0B1FA132079
:1006980001F0E6FA22462146142001F0A9FA1420B6
:1006A80001F0DEFA22462146152001F0A1FA1520B4
:1006B80001F0D6FA22462146162001F099FA1620B2
:1006C80001F0CEFABFE700230093344B1A6C42F0D6
:1006D80000721A641B6C03F000730093009BBAE766
:1006E800002302932D4B1A6C42F080621A641B6C33
:1006F80003F080630293029B274A13680133136057
:10070800012B38D000240494244B1A6B42F00202C7
:100718001A631B6B03F002030493049B6023059385
:1007280002230693032308930923099305A91D4867
:1007380001F0D2FC224621463F2001F059FA3F2021
:1007480001F08EFA22462146402001F051FA40205D
:1007580001F086FA22462146412001F049FA41205B
:1007680001F07EFA22462146422001F041FA422059
:1007780001F076FA67E700230393084B1A6C42F0FE
:1007880000721A641B6C03F000730393039BB9E7B0
:100798000064004000680040A004002000380240C7
:1007A800000C02400004024030B58BB001220892D0
:1007B80000230693079200930193029303930493F3
:1007C8000E25099505930D4C6946204600F0EEFF6D
:1007D800204601F089F80221204601F0B3F805957A
:1007E800074C6946204600F0E1FF204601F07CF8FE
:1007F8000221204601F0A6F80BB030BDA404002069
:10080800CC04002010B582B0002401940D4B1A6B63
:1008180042F400121A631B6B03F400130193019B4B
:10082800224621460C2001F0E3F90C2001F018FAC9
:10083800224621460E2001F0DBF90E2001F010FAC5
:1008480002B010BD00380240F0B58DB00024079406
:10085800089409940A940B9400943A4B1A6B42F04A
:1008680002021A631A6B02F002020092009A0194C3
:100878001A6B42F040021A631A6B02F040020192AE
:10088800019A02941A6B42F001021A631A6B02F081
:1008980001020292029A03941A6B42F008021A6348
:1008A8001A6B02F008020392039A04941A6B42F03E
:1008B80004021A631A6B02F004020492049A059463
:1008C8001A6B42F080021A631A6B02F080020592DA
:1008D800059A06941A6B42F020021A631B6B03F008
:1008E80020030693069B184D22464FF4E0512846F4
:1008F80001F0E4FC4FF48443079302270897099416
:1009080003260A9608230B9307A9104801F0E4FB75
:100918004FF440630793089709940A960A230B93A8
:1009280007A90B4801F0D8FB4FF4E05307930123C4
:10093800089309940A9407A9284601F0CDFB0DB045
:10094800F0BD00BF00380240001C02400018024001
:100958000000024008B50748074B036000234360C6
:1009680040F6FF73836001F0AFFC00B908BD00F0EA
:1009780019F8FBE7F404002000300040074B8342DD
:1009880000D0704710B5064C204600F091F81222AE
:100998002146024802F037FD10BD00BFD8070020ED
:1009A8001405002072B6FEE700B595B0302200218C
:1009B80008A802F069FD00230393049305930693A6
:1009C80007930193214A116C41F080511164126C14
:1009D80002F080520192019A02931D4B1A6842F468
:1009E80080421A601B6803F480430293029B092328
:1009F80008934FF48033099301230D9302230E9338
:100A08004FF480020F9206221092A822119212939C
:100A18000723139308A801F083FC98B90F230393C5
:100A280002230493002305934FF4A05306934FF435
:100A380080530793052103A801F0C0FE20B915B023
:100A48005DF804FBFFF7AEFFFFF7ACFF003802408C
:100A58000070004008B500F045FCFFF7A5FFFFF760
:100A6800F3FEFFF7CFFEFFF72DFDFFF799FDFFF728
:100A7800B9FDFFF76FFF00F003F900F039F900F056
:100A88006FF900F0A3F900F0C9F900F091FA00F04D
:100A9800A9FA00F0C3FAFFF787FE122202490348B9
:100AA80002F0B1FCFEE700BF14050020D8070020C3
:100AB800034600283ED00178427841EA0221C1F37A
:100AC8000A011D4A118040789978490141EAD0010C
:100AD800C1F30A0151809878D978890041EA9011C8
:100AE800187941EA8021C1F30A019180187959796E
:100AF800C90141EA5001C1F30A01D1805979890934
:100B080011725979C1F3011151729979D87941EA71
:100B180000215181197A587A41EA00219181997A04
:100B2800D87A41EA0021D181197B1174597B51741B
:100B38009B7B5382704700BF0005002082B00021D4
:100B480000910B4B5A6C42F480425A645A6C02F47E
:100B580080420092009A01911A6C42F080521A6405
:100B68001B6C03F080530193019B02B0704700BFD8
:100B780000380240FEE7FEE7FEE7FEE7FEE77047C3
:100B88007047704708B500F0C7FB08BD08B50248B4
:100B980001F0B4F908BD00BF9006002008B502486E
:100BA80001F0ACF908BD00BFF006002008B5024806
:100BB80000F0E7FE08BD00BFA404002008B5024805
:100BC80000F0DFFE08BD00BFA404002008B50248FD
:100BD80000F0D7FE08BD00BFA404002008B50248F5
:100BE80000F0CFFE08BD00BFA404002008B50248ED
:100BF80002F0ACFA08BD00BF5007002008B5024853
:100C080002F0A4FA08BD00BF9407002008B5024806
:100C180002F09CFA08BD00BFD807002008B50248BA
:100C280001F0D4FE08BD00BF0006002008B5024848
:100C380001F0CCFE08BD00BF4806002008B50248F8
:100C480000F09FFE08BD00BFCC04002008B5024894
:100C580000F097FE08BD00BFCC04002008B502488C
:100C680000F08FFE08BD00BFCC04002008B5024884
:100C780000F087FE08BD00BFCC04002070470000CC
:100C880000B587B000230293039304930593009360
:100C980001931548154A0260436083604FF6FF725E
:100CA800C2600361836101F0B3FF98B94FF48053C8
:100CB800029302A90C4801F0E3FF70B920230093C6
:100CC800002301936946084802F05AF840B907B072
:100CD8005DF804FBFFF766FEE8E7FFF763FEEDE764
:100CE800FFF760FEF3E700BF28050020000400407E
:100CF80000B587B0002302930393049305930093F0
:100D080001931548154A0260436083604FF6FF72ED
:100D1800C26003618023836101F07AFF90B94FF4C8
:100D28008053029302A90C4801F0AAFF68B9002376
:100D3800009301936946084802F022F840B907B0C9
:100D48005DF804FBFFF72EFEE9E7FFF72BFEEEE761
:100D5800FFF728FEF3E700BF7005002000080040F9
:100D680000B587B00023029303930493059300937F
:100D780001931448144A0260436083606322C2608E
:100D88000361836101F044FF90B94FF480530293EB
:100D980002A90C4801F074FF68B90023009301937D
:100DA8006946084801F0ECFF40B907B05DF804FB5C
:100DB800FFF7F8FDE9E7FFF7F5FDEEE7FFF7F2FDCE
:100DC800F3E700BFB8050020000C004000B583B071
:100DD8000023009301930F480F4A02605322426098
:100DE800836040F2E732C260836101F011FF50B9BD
:100DF8000023009301936946064801F0C1FF28B912
:100E080003B05DF804FBFFF7CDFDF1E7FFF7CAFD7E
:100E1800F6E700BF000600200010004000B583B0D0
:100E28000023009301930F480F4A02605322426047
:100E3800836040F2E732C260836101F0E9FE50B995
:100E48000023009301936946064801F099FF28B9E9
:100E580003B05DF804FBFFF7A5FDF1E7FFF7A2FD7E
:100E6800F6E700BF480600200014004000B58DB02A
:100E780000230793089309930A930B930368444A42
:100E880093420ED0434A93422CD0434A93424AD0CD
:100E9800424A934254D0424A934265D00DB05DF81D
:100EA80004FB002100913F4B1A6C42F002021A64C5
:100EB8001A6C02F002020092009A01911A6B42F039
:100EC80004021A631B6B03F004030193019B4FF4A4
:100ED80080730793022308930B9307A9324801F004
:100EE800FBF8DBE7002102912E4B1A6C42F004025A
:100EF8001A641A6C02F004020292029A03911A6BA5
:100F080042F008021A631B6B03F008030393039B68
:100F18004FF480430793022308930B9307A92348B0
:100F280001F0DAF8BAE7002304931E4B1A6C42F07A
:100F380008021A641B6C03F008030493049BADE7D2
:100F480000210591174B1A6C42F010021A641B6CB1
:100F580003F010030593059B0A46362000F048FE6F
:100F6800362000F07DFE99E7002106910D4B1A6CA2
:100F780042F020021A641B6C03F020030693069BC0
:100F88000A46372000F034FE372000F069FE85E776
:100F98000004004000080040000C00400010004021
:100FA800001400400038024000080240000C0240D3
:100FB80008B50A480A4B03604FF4E1334360002345
:100FC8008360C36003610C2242618361C36102F0E4
:100FD80005F800B908BDFFF7E5FCFBE7500700205E
:100FE8000010014008B50A480A4B03600A4B4360E9
:100FF80000238360C36003610C2242618361C36183
:1010080001F0ECFF00B908BDFFF7CCFCFBE700BF1F
:10101800940700200044004040420F0008B50A48E9
:101028000A4B03600A4B436000238360C36003617B
:101038000C2242618361C36101F0D0FF00B908BD91
:10104800FFF7B0FCFBE700BFD807002000480040CE
:10105800A0860100F0B58DB000230793089309938B
:101068000A930B9303686B4A934208D004466A4A72
:10107800934244D0694A93426CD00DB0F0BD00242D
:101088000094674B5A6C42F010025A645A6C02F092
:1010980010020092009A01941A6B42F002021A633D
:1010A8001A6B02F002020192019A02941A6B42F042
:1010B80001021A631B6B03F001030293029B802356
:1010C80007930227089703260A9607250B9507A971
:1010D800544801F001F84FF40073079308970994F6
:1010E8000A960B9507A9504800F0F6FF22462146BC
:1010F800252000F07DFD252000F0B2FDBDE700248D
:101108000394474B1A6C42F400321A641A6C02F4C6
:1011180000320392039A04941A6B42F008021A638D
:101128001B6B03F008030493049B602307930223BB
:10113800089303230A9307230B9307A93B4800F05E
:10114800CBFF22462146262000F052FD262000F043
:1011580087FD92E700250595314B1A6C42F48022F1
:101168001A641A6C02F480220592059A06951A6B85
:1011780042F004021A631B6B03F004030693069BF8
:101188004FF4406307930223089303230A9307232A
:101198000B9307A9264800F09FFF2648264B0360BB
:1011A8004FF0006343608560C5604FF4806303615E
:1011B80045618561C5610562456200F0DBFD18BBCC
:1011C8001C4BA3639C631D481D4B03604FF00063D9
:1011D8004360402383600023C3604FF48062026150
:1011E80043618361C3610362436200F0C3FD70B968
:1011F800124B63639C6300221146272000F0F8FC21
:10120800272000F02DFD38E7FFF7CCFBD8E7FFF7E4
:10121800C9FBEDE7001001400044004000480040D1
:10122800003802400004024000000240000C024066
:10123800000802409006002028600240F0060020C6
:1012480058600240DFF834D00D480E490E4A00239A
:1012580002E0D458C4500433C4188C42F9D30B4A62
:101268000B4C002301E013600432A242FBD3FFF7CA
:1012780005FD02F0E5F8FFF7EDFB704700000220DE
:10128800000000203C040020643600083C040020D4
:1012980024080020FEE7000010B504460E4B18781D
:1012A8004FF47A73B3FBF0F30C4A1068B0FBF3F019
:1012B80000F0E4FC68B90F2C01D901200AE00022F3
:1012C80021464FF0FF3000F093FC054B1C600020D6
:1012D80000E0012010BD00BF040000200000002035
:1012E8000800002008B50B4B1A6842F400721A6017
:1012F8001A6842F480621A601A6842F480721A60AE
:10130800032000F063FC0020FFF7C6FFFFF716FC80
:10131800002008BD003C0240034A1168034B1B78BB
:101328000B441360704700BF1C0800200400002015
:10133800014B1868704700BF1C0800204A4B5A68C8
:1013480022F440325A605A6841680A435A60026877
:10135800536823F48073536002685368016943EA51
:10136800012353600268536823F040735360026896
:10137800536881680B4353600268936823F40063E1
:10138800936002689368C1680B439360826A374B25
:101398009A4257D00268936823F07063936002689A
:1013A8009368816A0B4393600268936823F0405303
:1013B800936002689368C16A0B43936002689368FC
:1013C80023F00203936002689368017E43EA4103B5
:1013D800936090F82030002B3FD00268536843F4A4
:1013E800006353600268536823F4604353600168E4
:1013F8004B68426A013A43EA42334B600268D36A57
:1014080023F47003D3620168CB6AC269013A43EAE4
:101418000253CB620268936823F4007393600268F6
:10142800936890F8301043EA412393600268936808
:1014380023F48063936002689368416943EA8123D7
:10144800936070470268936823F070639360026842
:10145800936823F040539360B0E70268536823F41D
:1014680000635360CAE700BF002301400100000F7A
:1014780038B310B50446036C43B1236C13F0100F56
:101488000BD00120002384F83C3010BDFFF754F83E
:101498000023636484F83C30EFE7236C23F488531B
:1014A80023F0020343F0020323642046FFF746FFBC
:1014B80000206064236C23F0030343F001032364DA
:1014C800E0E701207047000030B482B000230193A8
:1014D80090F83C30012B00F0BB80012380F83C30B1
:1014E8000B68092B41D90468E2689BB203EB4303FC
:1014F8001E3B4FF0070C0CFA03F322EA0303E360E8
:101508000468E2680B8803EB43031E3B8D6805FA09
:1015180003F31343E3604B68062B3DD80468626B02
:1015280003EB8303053B4FF01F0C0CFA03F322EA8D
:10153800030363630468626B4B6803EB8303053B37
:10154800B1F800C00CFA03F3134363630268414B1C
:101558009A4251D002683F4B9A4256D0002380F8F5
:101568003C30184602B030BC7047046822699BB210
:1015780003EB43034FF0070C0CFA03F322EA0303CF
:101588002361046822690B8803EB43038D6805FA1D
:1015980003F313432361BEE70C2B16D805682A6BA7
:1015A80003EB8303233B1F2404FA03F322EA030318
:1015B8002B6305682A6B4B6803EB8303233B0C887A
:1015C80004FA03F313432B63C0E70568EA6A03EBE5
:1015D8008303413B1F2404FA03F322EA0303EB626B
:1015E8000568EA6A4B6803EB8303413B0C8804FAFD
:1015F80003F31343EB62A9E70B68122BAAD1164A2F
:10160800536843F480035360A4E70B68103B012B35
:10161800A4D8114A536843F4000353600B68102B95
:101628009CD10E4B1B6802F1467202F52E3202F273
:101638008332A2FB03239B0C03EB83035B00019320
:1016480002E0019B013B0193019B002BF9D185E747
:10165800022087E70020014000230140000000200D
:10166800002800F0A18038B5044690F82030D3B1A6
:101678002268136843F001031360FFF759FE05461B
:1016880023685A6812F0010F10D1FFF751FE401B72
:101698000A28F5D9636A43F400336362052384F8A2
:1016A8002030012038BDFEF7BFFFE1E71A6822F0BD
:1016B80002021A60FFF73CFE054623685A6812F0DA
:1016C800020F0DD0FFF734FE401B0A28F5D9636AD4
:1016D80043F400336362052384F820300120E1E7F6
:1016E800227E012A3DD01A6822F080021A60637EA9
:1016F800012B3BD02268136823F040031360A37EBC
:10170800012B39D02268136823F020031360E37E8D
:10171800012B37D02268136843F010031360237F2E
:10172800012B35D02268136823F008031360637F08
:10173800012B33D02268136823F004031360A368D5
:10174800E268134322691343626913436268013AEA
:1017580021681343CB6100206062012384F82030A4
:10176800A0E71A6842F080021A60C0E7226813688E
:1017780043F040031360C2E72268136843F0200374
:101788001360C4E72268136823F010031360C6E7E8
:101798002268136843F008031360C8E722681368D7
:1017A80043F004031360CAE70120704790F8203023
:1017B800013BDBB2012B05D9436A43F48023436222
:1017C8000120704710B5474BD3F8002242F00102C0
:1017D800C3F80022D3F8002222F47C52C3F8002276
:1017E800D3F80022486A42EA0022C3F800224A6974
:1017F80002F01F02012000FA02F2D3F81C026FEA7D
:10180800020C20EA0200C3F81C02CB69CBB9354BA5
:10181800D3F80C020CEA0000C3F80C028C88486963
:10182800D1F80CE044EA0E44483043F830408C6864
:10183800088840EA04404C6904F1480E03EBCE03E3
:101848005860CB69012B1ED08B69002B35D12548F8
:10185800D0F804320CEA0303C0F804320B699BBBCE
:101868002048D0F814320CEA0303C0F814320B6A8B
:10187800012B30D01B4AD2F8003223F00103C2F802
:101888000032002010BD174BD3F80C021043C3F8E8
:101898000C028C884869D1F800E044EA0E444830CC
:1018A80043F8304088894C69D1F808E040EA0E4096
:1018B800483403EBC4035860C6E70A48D0F804323A
:1018C8001343C0F80432C9E70648D0F8143213436A
:1018D800C0F81432CBE70349D1F81C321A43C1F8D7
:1018E8001C22C7E70064004070B5044690F82050F9
:1018F800EDB2012D06D0436A43F40023436201256B
:10190800284670BD022380F820300268136823F04F
:1019180001031360FFF70CFD064623685B6813F0AC
:10192800010F0CD0FFF704FD831B0A2BF5D9636A5E
:1019380043F400336362052384F82030E0E7002590
:101948006562DDE790F82030013BDBB2012B05D959
:10195800436A43F480234362012070470268536955
:1019680019435161002070477047704770477047AE
:1019780070477047704770477047704770477047A7
:1019880070472DE9F84F054603685C69D3F8048071
:101998009F68D3F80CB0D3F810A0D3F8189014F0BF
:1019A80001063BD017F0010616D001229A6017F005
:1019B800020F08D117F0040F0CD117F0080606D053
:1019C8004FF4805608E0FFF7CFFF002604E0FFF74A
:1019D800CEFF01E04FF4006617F4807F0DD02B682E
:1019E8004FF480729A6017F4007F40F0868017F4F5
:1019F800806F00F0868046F4005617F4803F0DD0C3
:101A08002B684FF480329A6017F4003F40F08380CF
:101A180017F4802F00F0838046F4004614F0080F76
:101A280007D01BF0100F04D046F400762B68102264
:101A3800DA6014F0040F02D01BF0080F79D114F00B
:101A4800020F04D02B68DB6813F0030F78D114F071
:101A5800400F07D01AF0100F04D046F480662B68A8
:101A680010221A6114F0200F02D01AF0080F6BD15F
:101A780014F0100F04D02B681B6913F0030F6AD100
:101A880014F4003F02D018F0100F68D114F4803F0E
:101A980002D018F0080F69D114F4004F7AD018F06A
:101AA800040F74D014F4807F04D019F0010F01D012
:101AB80046F0010614F4007F04D019F0020F01D09B
:101AC80046F0020614F4806F04D019F0040F01D018
:101AD80046F0040614F4006F59D019F0700956D076
:101AE800B9F1400F65D058D8B9F1200F5ED0B9F1DF
:101AF800300F42D146F0200644E02846FFF735FF74
:101B08007BE717F4006F02D046F4804675E7284655
:101B1800FFF72EFF71E72846FFF728FF7EE717F447
:101B2800002F02D046F4803678E72846FFF721FFD9
:101B380074E72B680822DA602846FFF71CFF7EE767
:101B48002846FFF717FF82E72B6808221A61284604
:101B5800FFF713FF8CE72846FFF70EFF90E72B6887
:101B680010225A602846FFF709FF8FE72B680822E2
:101B78005A602846FFF703FF8EE7B9F1100F01D12D
:101B880046F008062A68936923F0700393612B686E
:101B980004225A609EB9BDE8F88FB9F1500F0BD0F6
:101BA800B9F1600FEED146F48076EBE746F0100607
:101BB800E8E746F04006E5E746F08006E2E76B6AAC
:101BC8001E436E622846FFF7DBFEE4E7074AD36848
:101BD80023F4E0631B041B0C000200F4E0600343E1
:101BE80043F0BF6343F40033D360704700ED00E077
:101BF80000B5194BDB68C3F30223C3F1070CBCF132
:101C0800040F28BF4FF0040C03F1040EBEF1060FB9
:101C180018D9033B4FF0FF3E0EFA0CFC21EA0C01E9
:101C280099400EFA03F322EA0303194300280BDB59
:101C38000901C9B200F1604000F5614080F8001365
:101C48005DF804FB0023E5E700F00F000901C9B2C5
:101C5800024B1954F4E700BF00ED00E014ED00E07A
:101C6800002807DB00F01F02400901239340024AC5
:101C780042F82030704700BF00E100E00138B0F1C1
:101C8800807F0BD24FF0E0235861054AF02182F89B
:101C980023100020986107221A61704701207047BD
:101CA80000ED00E010B40368D9B210390B4AA2FB6A
:101CB800014212090A4CA25CC2655F2908D923F4C3
:101CC8007F7323F0030304338365806D10BC704772
:101CD80023F47F7323F003038365F6E7ABAAAAAA6C
:101CE80044360008836A826992B9012B0AD0022B14
:101CF80002D00BB100207047C36A13F0807F28D14F
:101D080000207047C36AB3F1C07F24D00020704719
:101D1800B2F5005F09D0022B25D9032B25D1C36A60
:101D280013F0807F23D100207047032B03D8DFE80E
:101D380003F01404140A00207047C36A13F0807F6C
:101D48000DD100207047C36AB3F1C07F09D00020CD
:101D5800704701207047012070470120704701201B
:101D6800704701207047012070470020704701200C
:101D78007047000070B50446FFF7DAFA002C5BD014
:101D88000546022384F83530002384F8343022686D
:101D9800136823F00103136023681A6812F0010F17
:101DA8000AD0FFF7C5FA431B052BF5D92023636535
:101DB800032084F8350070BD1A6820481040616817
:101DC800A2680A43E1680A4321690A4361690A4330
:101DD800A1690A43E1690A43216A0A430243616A25
:101DE80004291ED01A602668756925F00705636AFC
:101DF8001D43042B07D1A36A1D43E36A1BB1204688
:101E0800FFF770FF90B975612046FFF74BFFE26D51
:101E18003F239340836000206065012384F83530B8
:101E2800C9E7E16A206B01430A43DBE740236365A6
:101E3800012084F83500BEE70120BCE73F8010F0A0
:101E480070B50446866DFFF773FA94F83530DBB247
:101E5800022B06D080236365002384F834300120E8
:101E680070BD05462268136823F0160313602268C4
:101E7800536923F080035361236CE3B1226813682C
:101E880023F0080313602268136823F0010313602A
:101E980023681B6813F0010F11D0FFF749FA431BA1
:101EA800052BF5D920236365032084F8350000232A
:101EB80084F83430D4E7A36C002BDFD1E3E7E26D7C
:101EC8003F239340B360012384F83530002084F821
:101ED8003400C5E790F83530DBB2022B03D08023FD
:101EE800436501207047052380F835300268136880
:101EF80023F001031360002070470000F0B583B0A1
:101F0800044600230193724B1D68724BA3FB0535F1
:101F1800AD0A876D3E68C26D08239340334210D0E6
:101F280003681A6812F0040F0BD01A6822F0040232
:101F38001A60C26D08239340BB60436D43F00103F0
:101F48004365E26D01239340334209D02268526908
:101F580012F0800F04D0BB60636D43F00203636529
:101F6800E26D04239340334209D02268126812F0CC
:101F7800020F04D0BB60636D43F004036365E26D38
:101F880010239340334224D02268126812F0080FBD
:101F98001FD0BB6023681A6812F4802F0DD01B680D
:101FA80013F4002F04D1236C9BB12046984710E00E
:101FB800A36C73B1204698470BE01A6812F4807F2F
:101FC80003D11A6822F008021A60236C0BB120466C
:101FD8009847E26D20239340334255D02268126817
:101FE80012F0100F50D0BB6094F83530DBB2052BDF
:101FF8000ED023681A6812F4802F33D01B6813F4AC
:10200800002F2AD1636C002B3ED0204698473BE036
:102018002268136823F0160313602268536923F0BB
:1020280080035361236CA3B12268136823F008036B
:102038001360E26D3F239340BB60012384F8353081
:10204800002384F83430236D002B3FD02046984776
:102058003CE0A36C002BE7D1EBE7E36BA3B1204690
:10206800984711E01A6812F4807F09D11A6822F0A3
:1020780010021A60012384F83530002384F83430C4
:10208800E36B0BB120469847636DFBB1636D13F0AA
:10209800010F17D0052384F835302268136823F020
:1020A80001031360019B01330193AB4204D82368F9
:1020B8001B6813F0010FF5D1012384F83530002394
:1020C80084F83430E36C0BB12046984703B0F0BD78
:1020D80000000020B5814E1B00230F2B00F2E48086
:1020E80070B582B060E085685E000324B44025EADC
:1020F8000405CC68B4402C438460456825EA020591
:102108004C68C4F300129A402A4342605AE0DC0843
:10211800083450F8246003F0070295000F22AA4003
:1021280026EA020E0A69AA4042EA0E0240F8242072
:102138005CE0072200E0002202FA0EF22A43023491
:102148005A4D45F824205A4A94686FEA0C0224EA4A
:102158000C054E6816F4801F01D04CEA0405544C57
:10216800A560E46802EA04054E6816F4001F01D071
:102178004CEA04054E4CE560646802EA04054E68C2
:1021880016F4003F01D04CEA0405494C6560246808
:1021980022404D6815F4803F01D04CEA0402444CBB
:1021A800226001330F2B7DD801229A400C6804EA83
:1021B800020C32EA0404F4D14C6804F00304013C34
:1021C800012C90D94A6802F00302032A09D0C46896
:1021D8005D000322AA4024EA02048A68AA40224336
:1021E800C2604A6802F00302022A90D004684FEAEB
:1021F800430E032202FA0EF224EA02044A6802F0AD
:10220800030202FA0EF2224302604A6812F4403FC7
:10221800C7D000220192274A546C44F48044546485
:10222800526C02F480420192019A9C08A51C1F4A34
:1022380052F8255003F003024FEA820E0F2202FAE9
:102248000EF225EA02051C4A90423FF474AF02F5EB
:10225800806290421AD002F58062904218D002F54E
:102268008062904216D002F58062904214D002F546
:102278008062904212D002F58062904210D002F53E
:10228800806290423FF455AF082255E7012253E798
:10229800022251E703224FE704224DE705224BE7CC
:1022A800062249E702B070BD704700BF0038014000
:1022B800003C014000380240000002400AB1816140
:1022C800704709048161704740B338B50446036814
:1022D8004CF6CC421A60036845F255521A600368FE
:1022E80042685A60036882689A60FFF721F80546D9
:1022F8002368DA6812F0030F0BD0FFF719F8401BB8
:102308003128F5D92368DB6813F0030FF0D00320D8
:1023180003E04AF6AA221A60002038BD012070475F
:10232800002800F0E08170B582B00446036813F01D
:10233800010F3BD09F4B9B6803F00C03042B2CD060
:102348009C4B9B6803F00C03082B21D06368B3F502
:10235800803F4FD0B3F5A02F52D0964B1A6822F485
:1023680080321A601A6822F480221A606368002B8F
:1023780050D0FEF7DDFF05468E4B1B6813F4003F77
:1023880014D1FEF7D5FF401B6428F5D90320B1E12D
:10239800884B5B6813F4800FD8D0864B1B6813F406
:1023A800003F03D06368002B00F09F81236813F07F
:1023B800020F54D07F4B9B6813F00C0F3ED07D4B1F
:1023C8009B6803F00C03082B33D0E368002B68D01C
:1023D800794B01221A60FEF7ABFF0546754B1B6867
:1023E80013F0020F54D1FEF7A3FF401B0228F5D9C2
:1023F80003207FE16F4A136843F480331360B5E725
:102408006C4B1A6842F480221A601A6842F48032CF
:102418001A60ABE7FEF78CFF0546664B1B6813F4A2
:10242800003FC3D0FEF784FF401B6428F5D9032082
:1024380060E1604B5B6813F4800FC6D15D4B1B688D
:1024480013F0020F03D0E368012B40F05081594A82
:10245800136823F0F803216943EAC1031360236872
:1024680013F0080F42D063696BB3534B0122C3F8D2
:10247800802EFEF75DFF05464E4B5B6F13F0020F93
:1024880034D1FEF755FF401B0228F5D9032031E16E
:10249800484A136823F0F803216943EAC10313602B
:1024A800DDE7454B00221A60FEF742FF0546414B27
:1024B8001B6813F0020FD2D0FEF73AFF401B022828
:1024C800F5D9032016E13C4B0022C3F8802EFEF715
:1024D8002FFF0546374B5B6F13F0020F06D0FEF750
:1024E80027FF401B0228F5D9032003E1236813F0D6
:1024F800040F77D02F4B1B6C13F0805F33D1002370
:1025080001932C4B1A6C42F080521A641B6C03F036
:1025180080530193019B0125284B1B6813F4807F8E
:1025280023D0A368012B34D0052B38D0214B1A6F48
:1025380022F001021A671A6F22F004021A67A368D0
:10254800002B3DD0FEF7F4FE06461A4B1B6F13F026
:10255800020F46D1FEF7ECFE801B41F28833984209
:10256800F3D90320C6E00025D6E7144A136843F4DC
:1025780080731360FEF7DCFE0646104B1B6813F4ED
:10258800807FCED1FEF7D4FE801B0228F5D9032028
:10259800B0E0084A136F43F001031367CFE7054B18
:1025A8001A6F42F004021A671A6F42F001021A67A2
:1025B800C5E700BF003802400000474200700040F5
:1025C800FEF7B6FE0646524B1B6F13F0020F08D0FB
:1025D800FEF7AEFE801B41F288339842F3D9032000
:1025E80088E0EDB9A369002B00F08380484A92681F
:1025F80002F00C02082A51D0022B17D0454B0022BA
:102608001A66FEF795FE0446414B1B6813F0007FDF
:1026180042D0FEF78DFE001B0228F5D9032069E0A1
:102628003B4A136C23F080531364DBE7394B0022D9
:102638001A66FEF77DFE0546354B1B6813F0007FD2
:1026480006D0FEF775FE401B0228F5D9032051E09D
:10265800E369226A1343626A43EA8213A26A520850
:10266800013A43EA0243E26A43EA0263284A5360B2
:10267800284B01221A66FEF75BFE0446244B1B68B2
:1026880013F0007F06D1FEF753FE001B0228F5D990
:1026980003202FE000202DE000202BE0012B2BD081
:1026A8001B4B5B6803F48001E269914226D103F079
:1026B8003F02216A8A4223D1616A47F6C0721A40F2
:1026C800B2EB811F1ED103F44031A26A5208013ACD
:1026D800B1EB024F18D103F07063E26AB3EB026FFB
:1026E80014D1002006E001207047012002E00120FB
:1026F80000E0002002B070BD0120FBE70120F9E7EF
:102708000120F7E70120F5E70120F3E70120F1E7D1
:10271800003802400000474208B5254B9B6803F08B
:102728000C03042B3FD0082B3FD1214B5A6802F0F1
:102738003F025B6813F4800F12D01D4B5968C1F338
:1027480088111C480023A1FB0001FDF739FD184B37
:102758005B68C3F3014301335B00B0FBF3F025E092
:10276800134B5968C1F3881C4FEA4C11B1EB0C00AC
:102778006EEB0E0E4FEA8E1343EA90638101091A3D
:1027880063EB0E03DB0043EA5173C90011EB0C0C39
:1027980043F10003990200234FEA8C2041EA9C513F
:1027A800FDF70EFDD3E7034800E0034808BD00BF6E
:1027B80000380240001BB7000024F400002800F095
:1027C8009B8070B50D4604464F4B1B6803F007030A
:1027D8008B4208D2CBB24C4A1370136803F007033C
:1027E8008B4240F08B80236813F0020F17D013F050
:1027F800040F04D0454A936843F4E0539360236878
:1028080013F0080F04D0414A936843F4604393607F
:102818003E4A936823F0F003A1680B439360236852
:1028280013F0010F32D06368012B21D09A1E012AC0
:1028380025D9364A126812F0020F61D033498A68E6
:1028480022F0030213438B60FEF772FD06462F4BFE
:102858009B6803F00C036268B3EB820F16D0FEF797
:1028680067FD801B41F288339842F0D9032042E08B
:10287800264A126812F4003FE0D101203BE0234AC7
:10288800126812F0007FD9D1012034E01E4B1B687A
:1028980003F00703AB4207D9EAB21B4B1A701B6857
:1028A80003F00703AB422DD1236813F0040F06D0C1
:1028B800164A936823F4E053E1680B439360236856
:1028C80013F0080F07D0114A936823F46043216975
:1028D80043EAC1039360FFF71FFF0C4B9B68C3F3E8
:1028E80003130B4AD35CD8400A4B18600A4B18688C
:1028F800FEF7D2FC002070BD012070470120FAE7E6
:102908000120F8E70120F6E7003C024000380240C9
:102918002C3600080000002008000020014B186831
:10292800704700BF0000002008B5FFF7F7FF044B11
:102938009B68C3F38223034AD35CD84008BD00BF19
:10294800003802403C36000808B5FFF7E7FF044BA3
:102958009B68C3F34233034AD35CD84008BD00BF29
:10296800003802403C36000810B4036A046A24F0B8
:1029780001040462846924F0F00C4CEA021223F08A
:102988000A030B438261036210BC704710B4046AE7
:1029980024F0100404628469036A24F4704C4CEA3D
:1029A800023223F0A00343EA01138261036210BCE0
:1029B8007047836823F070030B4343F00703836079
:1029C80070477047704770477047704710B50446A6
:1029D80003681A6912F0020F11D0DA6812F0020FB8
:1029E8000DD06FF002021A610123037703689B6917
:1029F80013F0030F70D0FFF7E6FF00232377236857
:102A08001A6912F0040F12D0DA6812F0040F0ED00F
:102A18006FF004021A610223237723689B6913F479
:102A2800407F5FD02046FFF7CEFF0023237723683F
:102A38001A6912F0080F12D0DA6812F0080F0ED0D7
:102A48006FF008021A61042323772368DB6913F007
:102A5800030F4ED02046FFF7B6FF002323772368E5
:102A68001A6912F0100F12D0DA6812F0100F0ED097
:102A78006FF010021A61082323772368DB6913F4C7
:102A8800407F3DD02046FFF79EFF00232377236831
:102A98001A6912F0010F03D0DA6812F0010F36D16B
:102AA80023681A6912F0800F03D0DA6812F0800FD9
:102AB80034D123681A6912F0400F03D0DA6812F093
:102AC800400F32D123681A6912F0200F03D0DA6858
:102AD80012F0200F30D110BDFFF774FF2046FFF72A
:102AE80073FF8AE72046FFF76DFF2046FFF76CFF6C
:102AF8009BE72046FFF766FF2046FFF765FFACE738
:102B08002046FFF75FFF2046FFF75EFFBDE76FF047
:102B180001021A612046FFF754FFC1E76FF08002F7
:102B28001A61204600F073F9C3E76FF040021A619A
:102B38002046FFF74AFFC5E76FF020021A612046DA
:102B480000F064F9C7E700000368304A904212D0E9
:102B5800B0F1804F0FD0A2F57C4290420BD002F525
:102B68008062904207D002F58062904203D002F55D
:102B78007842904203D123F070034A681343234AF2
:102B880090422AD0B0F1804F27D0A2F57C429042E3
:102B980023D002F5806290421FD002F580629042F5
:102BA8001BD002F57842904217D002F5705290423D
:102BB80013D002F5806290420FD002F580629042F5
:102BC8000BD0A2F59832904207D002F5806290426D
:102BD80003D002F58062904203D123F44073CA689F
:102BE800134323F080034A69134303608B68C3626D
:102BF8000B688362054B984203D003F580639842C3
:102C080001D10B6903630123436170470000014050
:102C180040B310B5044690F83D30F3B1022384F870
:102C28003D30214651F8040BFFF78EFF012384F84D
:102C3800463084F83E3084F83F3084F8403084F8D9
:102C4800413084F8423084F8433084F8443084F8C2
:102C5800453084F83D30002010BD80F83C30FEF748
:102C680005F9DBE70120704710B4846824F47F4C31
:102C780042EA03220A4342EA0C02826010BC70470F
:102C880090F83C30012B78D010B50446012380F829
:102C98003C30022380F83D300268936823F47F4378
:102CA80023F0770393600B68602B4CD029D8402B16
:102CB80054D00CD9502B22D1CA6849680068FFF754
:102CC80053FE50212068FFF774FE002005E0202BFA
:102CD8000DD009D9302B0AD00120012384F83D30CA
:102CE800002384F83C3010BD0BB1102B05D11946D8
:102CF8002068FFF75EFE0020EFE70120EDE70120E6
:102D0800EBE7B3F5805F34D0B3F5005F0CD1CB6847
:102D18004A6889680068FFF7A7FF2268936843F448
:102D2800804393600020D8E7702B24D1CB684A6891
:102D380089680068FFF798FF2268936843F0770373
:102D480093600020C9E7CA6849680068FFF71EFE5B
:102D580060212068FFF72DFE0020BEE7CA68496899
:102D68000068FFF701FE40212068FFF722FE0020DF
:102D7800B3E70020B1E70120AFE702207047000069
:102D880090F83C30012B3CD010B4012380F83C3043
:102D9800022380F83D3003685A689C6822F0700C62
:102DA8000A6842EA0C025A600368174A93421AD02A
:102DB800B3F1804F17D0A2F57C42934213D002F5AD
:102DC800806293420FD002F5806293420BD002F5E5
:102DD8007842934207D002F57052934203D0A2F58D
:102DE8009432934204D124F080044A6814439C60CE
:102DF800012380F83D30002380F83C30184610BC91
:102E080070470220704700BF0000014070477047BC
:102E1800026802F10C0353E8003F23F490730C326C
:102E280042E800310029F3D1026802F1140353E8A3
:102E3800003F23F00103143242E800310029F3D1A6
:102E4800036B012B05D0202380F83E300023036359
:102E58007047026802F10C0353E8003F23F01003A7
:102E68000C3242E800310029F3D1ECE790F83D300C
:102E7800DBB2212B01D0022070478368B3F5805F55
:102E880017D0036A5A1C02621A7803685A60C38C06
:102E98009BB2013B9BB2C3844BB90268D36823F051
:102EA8008003D3600268D36843F04003D3600020F6
:102EB80070470369002BE4D1036A1B880268C3F3D7
:102EC80008035360036A02330362E0E738B5044637
:102ED8000268136923F44053C1680B431361836884
:102EE8000269134342691343C2691A430168CB68F4
:102EF80023F4164323F00C031343CB600268536991
:102F080023F4407381690B4353610368314A934248
:102F180006D002F58062934202D0FFF705FD01E07A
:102F2800FFF712FDE369B3F5004F29D0002103181C
:102F380049411B1841F10001C90041EA5371DB0006
:102F4800181863684FEA83024FEA937341F100014E
:102F5800FDF736F9204DA5FB00325109642303FB28
:102F680011031B013233A5FB03235B0903F0F002B5
:102F780002EB011203F00F03216813448B6038BD84
:102F88000023021843EB0301121841F10001C900A4
:102F980041EA5271D200101841F10001626892189A
:102FA8005B41FDF70DF90C4DA5FB00325109642377
:102FB80003FB1103DB003233A5FB03235B095A0033
:102FC80002F4F87202EB011203F0070321681344BC
:102FD8008B60D4E7001001401F85EB5158B310B542
:102FE800044690F83D300BB3242384F83D30226822
:102FF800D36823F40053D3602046FFF767FF2268A5
:10300800136923F4904313612268536923F02A0358
:1030180053612268D36843F40053D36000202064CE
:10302800202384F83D3084F83E3010BD80F83C30D1
:10303800FEF710F8D8E701207047704708B5016817
:10304800CA6822F04002CA60202280F83D20FFF7BB
:10305800F4FF002008BD704708B5806B0023C385C6
:10306800C384FFF7F8FF08BD704790F83E30DBB225
:10307800222B67D18368B3F5805F4DD0826AB3F5A0
:10308800805F04D0002B54D10369002B51D1036811
:103098005B681370836A01338362C38D9BB2013B03
:1030A8009BB2C385002B4FD100B583B00268D368AB
:1030B80023F02003D3600268D36823F48073D360BD
:1030C8000268536923F001035361202380F83E30DE
:1030D800036B012B33D100230363026802F10C0355
:1030E80053E8003F23F010030C3242E80031002976
:1030F800F3D103681A6812F0100F06D0002201926B
:103108001A6801925B680193019B818DFFF7ACFF00
:10311800002003B05DF804FB0269002AAED1826A80
:1031280003685B68C3F308031380836A023383620E
:10313800B3E703685B6803F07F031370AAE7FDF742
:103148001DFCE5E7022070470020704730B583B0CA
:10315800044602681368D068516913F00F0505D159
:1031680013F0200F02D010F0200F19D12DB111F05B
:10317800010119D110F4907F16D1216B01297DD05E
:1031880013F0800F03D010F0800F40F0158113F07A
:10319800400F03D010F0400F40F0128103B030BD53
:1031A8002046FFF762FFF9E713F0010F06D010F48D
:1031B800807F03D0226C42F00102226413F0040FD6
:1031C80004D019B1226C42F00202226413F0020FFB
:1031D80004D019B1226C42F00402226413F0080FE3
:1031E80007D010F0200F00D119B1226C42F008026C
:1031F8002264226C002AD1D013F0200F02D010F0E4
:10320800200F29D123685B6903F04003226C12F078
:10321800080F00D163B32046FFF7FAFD23685B6906
:1032280013F0400F20D0226802F1140353E8003F46
:1032380023F04003143242E800310029F3D1A36B94
:1032480073B1614A1A65A06BFEF744FE0028A5D049
:10325800A06B036D9847A1E72046FFF706FFD1E76B
:103268002046FFF7F8FE99E72046FFF7F4FE95E7BA
:103278002046FFF7F0FE002323648FE713F0100FBA
:103288003FF47EAF10F0100F3FF47AAF00230193A4
:103298001368019353680193019B536913F0400F1E
:1032A80050D0A26B13685B689BB2002B3FF476AFDB
:1032B800A18D99427FF672AFE385D369B3F5807F1C
:1032C80037D0226802F10C0353E8003F23F48073DF
:1032D8000C3242E800310029F3D1226802F11403CC
:1032E80053E8003F23F00103143242E8003100297B
:1032F800F3D1226802F1140353E8003F23F040039E
:10330800143242E800310029F3D1202384F83E30FA
:1033180000232363226802F10C0353E8003F23F0E3
:1033280010030C3242E800310029F3D1A06BFEF7FC
:1033380087FDA18DE38D9BB2C91A89B22046FFF79C
:1033480093FE2BE7A18DE38D9BB2C91A89B2E38D59
:103358009BB2002B3FF422AF00293FF41FAF226835
:1033680002F10C0353E8003F23F490730C3242E857
:1033780000300028F3D1226802F1140353E8003F1B
:1033880023F00103143242E800300028F3D120234F
:1033980084F83E3000232363226802F10C0353E8CB
:1033A800003F23F010030C3242E800300028F3D12C
:1033B8002046FFF759FEF1E62046FFF757FDEDE6F8
:1033C8002046FFF73BFEE9E661300008816282850E
:1033D800C28500230364222280F83E2080F83C3016
:1033E800036923B10268D36843F48073D360026829
:1033F800536943F0010353610268D36843F0200323
:10340800D3600020704708B590F83E30DBB2202B1F
:103418000DD171B17AB190F83C30012B0DD0012358
:1034280080F83C3000230363FFF7D0FF00E0022060
:1034380008BD0120FCE70120FAE70220F8E70000B8
:1034480070B50D4E0D4D761BB61006D0002455F8FC
:10345800043B01349847A642F9D1094E094D761B21
:1034680000F0D4F8B61006D0002455F8043B013417
:103478009847A642F9D170BD58360008583600085A
:103488006036000858360008830730B548D0541E07
:10349800002A3FD0CAB2034601E0013C3AD303F800
:1034A800012B9D07F9D1032C2DD9CDB245EA05256D
:1034B8000F2C45EA054536D9A4F1100222F00F0C6D
:1034C80003F1200EE6444FEA121C03F1100242E910
:1034D800045542E9025510327245F8D10CF1010247
:1034E80014F00C0F03EB021204F00F0C13D0ACF124
:1034F800040323F003030433134442F8045B9342A8
:10350800FBD10CF003042CB1CAB21C4403F8012B04
:103518009C42FBD130BD64461346002CF4D1F9E738
:1035280003461446BFE71A46A446E0E7024B13B128
:10353800024800F005B87047000000005535000843
:10354800002301461A46184600F01AB838B5084B49
:10355800084D5B1B9C1007D0043B1D44013C55F8EB
:1035680004399847002CF9D1BDE8384000F054B828
:103578006436000860360008704700BF704700BF17
:103588002DE9F047DFF87CA00646DAF800009846F7
:103598000F469146FFF7F0FF1B4B1B68D3F84841D5
:1035A80024B365681F2D26DC5EB96B1C0235DAF87A
:1035B8000000636044F82570FFF7E0FF0020BDE8D5
:1035C800F08704EB85010123C1F88890D4F888219D
:1035D800AB401A43022EC4F88821C1F80881E4D10F
:1035E800D4F88C211343C4F88C31DEE703F5A674B4
:1035F800C3F84841D5E7DAF80000FFF7BFFF4FF0FE
:10360800FF30DCE7380400204C360008F8B500BF6E
:10361800F8BC08BC9E467047F8B500BFF8BC08BCAB
:043628009E46704703
:10362C000000000000000000010203040607080966
:10363C00000000000102030400061016000610161C
:04364C00100000204A
:08365000A8CBFF7F0100000080
:0836580035350008AD01000842
:0436600089010008D4
:103664000024F4000100000010000000000000002D
:1036740000000000FC02002064030020CC030020B2
:103684000000000000000000000000000000000036
:103694000000000000000000000000000000000026
:1036A4000000000000000000000000000000000016
:1036B4000000000000000000000000000000000006
:1036C40000000000000000000000000000000000F6
:1036D40000000000000000000000000000000000E6
:1036E40000000000000000000000000000000000D6
:1036F40000000000000000000000000000000000C6
:1037040000000000000000000000000000000000B5
:1037140000000000000000000100000000000000A4
:103724000E33CDAB34126DE6ECDE05000B00000069
:103734000000000000000000000000000000000085
:103744000000000000000000000000000000000075
:103754000000000000000000000000000000000065
:103764000000000000000000000000000000000055
:0C3A9400000000000000000020080020DE
:040000050800124D90
:00000001FF
